:100000000C944D000C946A000C946A000C946A00E5
:100010000C946A000C94760B0C946A000C946A00A1
:100020000C946A000C946A000C946A000C946A00A8
:100030000C946A000C946A000C946A000C946A0098
:100040000C946A000C946A000C946A000C946A0088
:100050000C94D4060C9476050C946A000C946A00F7
:100060000C946A000C946A000C946A000C946A0068
:100070000C943F040C943A050C946A0005A84CCDEE
:10008000B2D44EB93836A9020C50B9918688083CD2
:10009000A6AAAA2ABE000000803F11241FBECFEFEF
:1000A000D0E1DEBFCDBF13E0A0E0B1E0E8EFFEE2BB
:1000B00002C005900D92A034B107D9F717E0A0E473
:1000C000B3E001C01D92A73FB107E1F70E94810094
:1000D0000C947A170C94190490917C008770892BEA
:1000E00080937C0080917A00806480937A00809174
:1000F0007A0086FDFCCF2091780030917900C9010B
:1001000008952F923F924F925F926F927F928F92BB
:100110009F92AF92BF92CF92DF92EF92FF920F9396
:100120001F93CF93DF93F89412B80E946E010E9440
:100130001E070E94320D88E184B983E884BD81E006
:1001400085BD80E887BD80E480937C0087E880934C
:100150007A00789480E060E071E04CE050E00E942A
:100160007204C0E0D0E080E00E946C007C0181E07D
:100170000E946C005C0182E00E946C003C01BE01A8
:1001800080E090E00E946D111B012C01F694E79431
:10019000F694E794FF24E7FCF0940F2D1F2DC8017F
:1001A000B7010E94BB109B01AC0160E070E08AEFD8
:1001B00093E40E940F109B01AC016BED7FE089E49A
:1001C00090E40E940F109B01AC01C201B1010E949A
:1001D000150F0E94B7157B018C0193E0B694A7948C
:1001E0009A95E1F7BB24A7FCB094CB2CDB2CC6017D
:1001F000B5010E94BB10A80197010E94150F7B0159
:100200008C017694679476946794772467FC709455
:10021000872C972CC401B3010E94BB109B01AC0139
:10022000C801B7010E94E80E0E9497150E9419119B
:1002300067BD88E893E10197F1F7219683E0C83E16
:10024000D80708F08ECF8FCFF999FECF92BD81BD30
:10025000F89A80B50895DC0120E030E00FC0F999EC
:10026000FECFC9018A0F9B1F92BD81BDF89A80B550
:10027000FB01E20FF31F80832F5F3F4F24173507E9
:1002800070F30895F999FECF92BD81BD60BDFA9AD1
:10029000F99A0895CF92DF92EF92FF920F931F93F6
:1002A000CF93DF936C017B018A01C0E0D0E00AC0EC
:1002B000F701EC0FFD1FCE018C0D9D1D60810E948A
:1002C00042012196C017D10798F3DF91CF911F917A
:1002D0000F91FF90EF90DF90CF9008958DE090E028
:1002E00069E473E042EC51E00E942B0108958823F9
:1002F00029F0813071F020E030E020C0F999FECF84
:1003000012BC11BCF89A30B5F999FECF81E090E0AB
:100310000CC0F999FECF82E090E092BD81BDF89AC1
:1003200030B5F999FECF83E090E092BD81BDF89A97
:1003300020B5932F80E030E0282B392BC901089598
:100340001F93162F882319F0813099F408C080E09C
:1003500090E060E00E94420181E090E007C082E00E
:1003600090E060E00E94420183E090E0612F0E94F3
:1003700042011F910895EF92FF920F931F93DF9315
:10038000CF93CDB7DEB729970FB6F894DEBF0FBE77
:10039000CDBFFE01319689E0DF011D928A95E9F714
:1003A0000DE010E07F01C801B70149E050E00E9474
:1003B0004A01075F1F4FB1E00F3C1B07A1F72996C9
:1003C0000FB6F894DEBF0FBECDBFCF91DF911F9166
:1003D0000F91FF90EF9008958DE090E069E473E055
:1003E00042EC51E00E944A010895CF92DF92EF92D1
:1003F000FF920F931F93CF93DF930E9488086B01A6
:100400007C01C9E4D3E088819981AA81BB810097EE
:10041000A105B10579F10C811D810115110551F17D
:10042000A7019601281B390B4A0B5B0BCA01B901C6
:100430002E813F81200F311F40E050E00E94B41315
:100440009B01AC01211531054105510529F4888531
:1004500090E061E070E00CC0C801A0E0B0E02817B7
:1004600039074A075B0731F4888590E060E070E067
:100470000E943707299635E0CB30D30721F6DF916C
:10048000CF911F910F91FF90EF90DF90CF90089543
:100490000F931F93BC01E9E4F3E040E050E01E2F0E
:1004A0000F2F80819181A281B3810097A105B105B1
:1004B000E1F484819581892BC1F49F01D901FB016D
:1004C00089E001900D928150E1F7CA0123E0880F85
:1004D000991F2A95E1F7840F951F0D96612F702FB4
:1004E00049E050E00E944A0106C04F5F5F4F3996D5
:1004F00042335105A1F680E06DE071E044E150E047
:100500000E9472041F910F910895DF93CF93CDB78E
:10051000DEB729970FB6F894DEBF0FBECDBFFE0140
:10052000319629E0DF011D922A95E9F7BC0133E0FD
:10053000660F771F3A95E1F7680F791FDB01A75B1C
:10054000BC4F89E001900D928150E1F7CB010D96EF
:10055000675B7C4F49E050E00E944A0180E062E224
:1005600071E046E150E00E94720429960FB6F894BB
:10057000DEBF0FBECDBFCF91DF910895CF92DF9246
:10058000EF92FF920F931F93DF93CF93CDB7DEB718
:1005900060970FB6F894DEBF0FBECDBF80E069E371
:1005A00071E041E150E00E94720449E4E42E43E02E
:1005B000F42ECC24DD248E010F5F1F4FF7018081C4
:1005C0009181A281B3810097A105B10509F4AFC063
:1005D00084819581892B09F4AAC0C601B8014AE03B
:1005E00050E00E94271580E06BE471E047E050E0A6
:1005F0000E947204D8010D900020E9F71197A01B0A
:10060000B10B80E0B801AD010E94720480E063E5A7
:1006100071E041E050E00E947204F7016081718155
:1006200082819381A8012AE030E00E94271580E0B2
:1006300065E571E04CE050E00E947204D8010D9035
:100640000020E9F71197A01BB10B80E0B801AD01C4
:100650000E94720480E063E571E041E050E00E9496
:100660007204F70184819581B8014AE050E00E944C
:100670004C1580E062E671E049E050E00E947204AF
:10068000D8010D900020E9F71197A01BB10B80E075
:10069000B801AD010E94720480E063E571E041E0C1
:1006A00050E00E947204F70186819781B8014AE008
:1006B00050E00E944C1580E06CE671E04AE050E0AA
:1006C0000E947204D8010D900020E9F71197A01B39
:1006D000B10B80E0B801AD010E94720480E063E5D7
:1006E00071E041E050E00E947204F701808590E0E3
:1006F000B8014AE050E00E944C1580E067E771E0E5
:1007000046E050E00E947204D8010D900020E9F705
:100710001197A01BB10B80E0B801AD010E947204DB
:1007200080E063E571E041E050E00E9472040894CB
:10073000C11CD11C89E090E0E80EF91E92E3C916B5
:10074000D10409F03BCF80E06EE771E04FE050E06C
:100750000E94720460960FB6F894DEBF0FBECDBF44
:10076000CF91DF911F910F91FF90EF90DF90CF908D
:100770000895FC01EC5BFF4F1082E454F040DF0170
:10078000A05CBF4FEC931196FC93DF01AE5BBF4FB3
:10079000EC931196FC930895CF93DF939C01EC01A9
:1007A000CC5BDF4F8881803411F48FEF18C0D90102
:1007B000A05CBF4FED91FC911197608388818F5FA2
:1007C0008883ED91FC911197CF01019611969C932E
:1007D0008E938A179B0711F43283218380E0DF9187
:1007E000CF910895CF93DF93AC01DC01AC5BBF4F99
:1007F0008C91882311F48FEF19C0EA01CE5BDF4F93
:10080000E881F9818081FB0180838C9181508C93F8
:10081000888199810196998388839A01205C3F4F52
:100820008217930711F45983488380E0DF91CF91B9
:1008300008951F920F920FB60F9211242F933F939A
:100840004F935F936F937F938F939F93AF93BF93D8
:10085000EF93FF9382E061E00E943707FF91EF91F1
:10086000BF91AF919F918F917F916F915F914F91C8
:100870003F912F910F900FBE0F901F9018951F92D0
:100880000F920FB60F9211242F933F934F935F93C4
:100890006F937F938F939F93AF93BF93EF93FF9348
:1008A0008091C80084FD04C08091C80082FF03C00D
:1008B0008091CE0006C06091CE008FE197E00E944B
:1008C000CC03FF91EF91BF91AF919F918F917F9159
:1008D0006F915F914F913F912F910F900FBE0F90AD
:1008E0001F901895BF92CF92DF92EF92FF920F93D5
:1008F0001F93CF93DF93B82E6B017A01F89485E4B0
:100900009B2D9802800111240C59184FC0E0D0E0B3
:1009100008C0F601EC0FFD1FC80160810E94CC03E6
:100920002196CE15DF05A8F37894BB2031F4809191
:10093000C10080628093C10005C08091C9008062BF
:100940008093C900DF91CF911F910F91FF90EF909D
:10095000DF90CF90BF900895DF93CF930F92CDB7E4
:10096000DEB789838A3019F48DE00E94AC0480E000
:10097000BE016F5F7F4F41E050E00E94720480E053
:1009800090E00F90CF91DF9108950F931F938C010A
:100990008091C80087FDFCCF8091C80085FFFCCF07
:1009A0008091C900877E8093C9008FE197E00E9403
:1009B000B90389EA97E00E94B90382E08093C800F6
:1009C0001093CD000093CC0088E98093C90086E0A5
:1009D0008093CA001F910F9108950F931F938C016C
:1009E0008091C00087FDFCCF8091C00085FFFCCFC7
:1009F0008091C100877E8093C1008AED96E00E94BD
:100A0000B90384E697E00E94B90382E08093C000B6
:100A10001093C5000093C40088E98093C10086E06C
:100A20008093C2001F910F9108950F931F93DF933E
:100A3000CF9300D0CDB7DEB78C01BE016F5F7F4F83
:100A40000E94F203C801BE016E5F7F4F0E94F20355
:100A500089816A810E94370780E06EE871E042E197
:100A600050E00E9472040F900F90CF91DF911F9180
:100A70000F9108951F920F920FB60F9211242F938A
:100A80003F934F935F936F937F938F939F93AF9316
:100A9000BF93EF93FF93DF93CF930F92CDB7DEB762
:100AA00089EA97E0BE016F5F7F4F0E94F2038F3F9C
:100AB00031F48091C9008F7D8093C90003C0898182
:100AC0008093CE000F90CF91DF91FF91EF91BF9176
:100AD000AF919F918F917F916F915F914F913F91D6
:100AE0002F910F900FBE0F901F9018951F920F928D
:100AF0000FB60F9211242F933F934F935F936F93F1
:100B00007F938F939F93AF93BF93EF93FF93DF9365
:100B1000CF930F92CDB7DEB784E697E0BE016F5F4B
:100B20007F4F0E94F2038F3F31F48091C1008F7D8F
:100B30008093C10003C089818093C6000F90CF913C
:100B4000DF91FF91EF91BF91AF919F918F917F9135
:100B50006F915F914F913F912F910F900FBE0F902A
:100B60001F9018956F927F929F92AF92BF92CF92F3
:100B7000DF92EF92FF920F931F93DF93CF93CDB746
:100B8000DEB75C01962E6DB67EB6862F90E02DB74F
:100B90003EB7281B390B0FB6F8943EBF0FBE2DBFD2
:100BA000EDB6FEB60894E11CF11C87016701C80E82
:100BB000D91E06C0C501B8010E94F2030F5F1F4F86
:100BC0000C151D05B9F7992039F0F7018081992797
:100BD00087FD90950E9485020FB6F8947EBE0FBEE9
:100BE0006DBECF91DF911F910F91FF90EF90DF903D
:100BF000CF90BF90AF909F907F906F9008958F920D
:100C00009F92AF92BF92CF92DF92EF92FF920F939B
:100C10001F93DF93CF93CDB7DEB75C018DB69EB641
:100C200070E08DB79EB7861B970B0FB6F8949EBFEA
:100C30000FBE8DBFEDB6FEB60894E11CF11C870116
:100C40006701C60ED71E06C0C501B8010E94F20397
:100C50000F5F1F4F0C151D05B9F7C7010E94480211
:100C60000FB6F8949EBE0FBE8DBECF91DF911F913F
:100C70000F91FF90EF90DF90CF90BF90AF909F903B
:100C80008F900895CF92DF92EF92FF920F931F9370
:100C9000DF93CF93CDB7DEB72B970FB6F894DEBFB7
:100CA0000FBECDBF6C01E62E8E010F5F1F4FFF24DC
:100CB00007C0C601B8010E94F203F3940F5F1F4FF3
:100CC000FE14B8F3CE010196FC01EE0DF11D108269
:100CD00060E070E04AE050E00E9421140E947E0B28
:100CE0002B960FB6F894DEBF0FBECDBFCF91DF912C
:100CF0001F910F91FF90EF90DF90CF9008950F9389
:100D00001F93DF93CF9300D00F92CDB7DEB78C0146
:100D1000BE016F5F7F4F0E94F203C801BE016E5F8C
:100D20007F4F0E94F203C801BE016D5F7F4F0E949A
:100D3000F2038B818430D1F0853028F4813051F07A
:100D4000823051F50DC08630D1F08630A8F0873062
:100D500019F51BC069816150C8010E9415051CC0AE
:100D600069816150C8010E94420616C069816150C4
:100D7000C8010E94FF0510C00E94BE020DC069811B
:100D80006150C8010E94B20507C080E061EA71E0CD
:100D900045E050E00E9472040F900F900F90CF91A9
:100DA000DF911F910F9108951F920F920FB60F922E
:100DB00011242F933F934F935F936F937F938F9360
:100DC0009F93AF93BF93EF93FF938091C00084FDF7
:100DD00004C08091C00082FF03C08091C60006C09D
:100DE0006091C6008AED96E00E94CC0320911E0718
:100DF000223098F0E0911C07F0911D07808190E06F
:100E0000029630E08217930741F48AED96E00E9443
:100E10007F068AED96E00E94B903FF91EF91BF91A2
:100E2000AF919F918F917F916F915F914F913F9182
:100E30002F910F900FBE0F901F90189580E00E9489
:100E40007701009711F48AE290E00E94ED0487EAAE
:100E500091E09093F2078093F10781E00E9477017F
:100E6000009711F48AE290E00E94C5040895382F9B
:100E7000662359F021B181E090E002C0880F991FEC
:100E80003A95E2F7282B21B9089521B181E090E04D
:100E900002C0880F991F3A95E2F78095822381B9A5
:100EA000089591B121E030E002C0220F331F8A95EE
:100EB000E2F7922321F081B12095282302C081B16D
:100EC000282B21B90895AF92BF92CF92DF92EF9273
:100ED000FF920F931F935B016C010894A108B10866
:100EE000C108D108C601B50120E931E040E050E079
:100EF0000E94B41379018A01D601C50122E0B6959A
:100F0000A795979587952A95D1F7E80EF91E0A1FA0
:100F10001B1FC601B50124E630E040E050E00E940E
:100F2000B413E21AF30A040B150BB701C8011F91A1
:100F30000F91FF90EF90DF90CF90BF90AF9008950A
:100F4000EF92FF920F931F937B018C0120E931E018
:100F500040E050E00E94B4136115710581059105D0
:100F6000F9F0C801B70124E630E040E050E00E940B
:100F7000B413611571058105910519F420E030E085
:100F800011C020E030E083E090E0A0E0B0E0E82293
:100F9000F9220A231B23E114F1040105110511F4C0
:100FA00021E030E0C9011F910F91FF90EF9008956B
:100FB000382FFA018091EE0790E044EAA0ED24E892
:100FC00051ED9F5F993C79F04093BC008091BC004B
:100FD00087FFFCCF8091B900887F803149F088334A
:100FE00099F3883029F08093EE072FEF3FEF77C019
:100FF000A093BB002093BC008091BC0087FFFCCF76
:101000008091B900887F8032E1F28833E9F288313B
:10101000C1F53093BB002093BC008091BC0087FFDA
:10102000FCCF8091B900887F803331F1883361F241
:10103000883239F54093BC008091BC0087FFFCCF1B
:101040008091B900887F803129F0883309F4BCCFC2
:101050008830B9F45093BB002093BC008091BC0051
:1010600087FFFCCF8091B900887F803469F0883495
:1010700019F0883331F4A8CF8093EE0720E030E0F8
:101080002BC08093EE0719C08093EE0794EC20E00C
:1010900030E01FC06130710509F494E89093BC0002
:1010A0008091BC0087FFFCCF8091B900887F80933E
:1010B000EE07803539F0883519F02FEF3FEF0CC07F
:1010C00060E070E08091BB0081932F5F3F4F6150E3
:1010D000704016161706F4F284E98093BC00C9012B
:1010E0000895DF93CF930F92CDB7DEB78CE061E028
:1010F00070E0AE014F5F5F4F0E94D807898186FD87
:1011000002C080E001C08FEF0F90CF91DF91089572
:101110004F925F926F927F928F929F92AF92BF9207
:10112000CF92DF92EF92FF920F931F93DF93CF93B3
:10113000CDB7DEB763970FB6F894DEBF0FBECDBF55
:10114000DE011896E0E2F2E08CE001900D92815011
:10115000E1F781E067E070E0AE014F5F5F4F0E9412
:10116000D8072F81422F4F7050E04053584F822FA5
:1011700082958F7090E09C0173E0220F331F7A9567
:10118000E1F7880F991F280F391F420F531F3A01AB
:10119000882477FC8094982C4E81242F22952F70E0
:1011A000822F817090E09C0153E0220F331F5A95EB
:1011B000E1F7880F991F280F391F142F1F70120F86
:1011C000C401B3010E94A007892B11F08DE189872A
:1011D000FE01389691E04424552404C08191480EC4
:1011E000511C9F5F9117D0F3C401B3010E946307A4
:1011F0005B016C0162EB77E080E090E00E946307A6
:10120000EB814E2F42954F70242F237030E0A901BF
:1012100013E0440F551F1A95E1F7220F331F420FB9
:10122000531FEF704E0F511D20E13EE0429F7001B1
:10123000439FF00C529FF00C11240027F7FC0095FF
:10124000102FEA814E2F42954F70242F277030E0E7
:10125000A901A3E0440F551FAA95E1F7220F331F00
:10126000420F531FEF704E0F511D2CE330E0F90178
:101270004E9F90014F9F300D5E9F300D11244427EB
:1012800037FD4095542FE20EF31E041F151FA98150
:101290002A2F22952F70E22FE770F0E09F0143E0A4
:1012A000220F331F4A95E1F7EE0FFF1F2E0F3F1F4E
:1012B000AF702A0F311D442737FD4095542FE20EA1
:1012C000F31E041F151F26E337E045EF5FEFA20E64
:1012D000B31EC41ED51EA61AB70AC80AD90A8D8124
:1012E000982F9F70A90EB11CC11CD11C82958F70C4
:1012F000282F237030E0C90153E0880F991F5A95B9
:10130000E1F7220F331F820F931FAA2797FDA095A5
:10131000BA2FA80EB91ECA1EDB1EC401B3012DE6EA
:1013200031E040E050E00E948213A60EB71EC81EB6
:10133000D91EB20180E090E06A0D7B1D8C1D9D1DC1
:1013400020E831E541E050E00E948213E60EF71EEE
:10135000081F191FB701C80163960FB6F894DEBFC6
:101360000FBECDBFCF91DF911F910F91FF90EF90F6
:10137000DF90CF90BF90AF909F908F907F906F90B5
:101380005F904F900895CF93DF93A82FFA01C82F55
:10139000D0E0482F47609B012C0F3D1F842F90E029
:1013A000281739071CF42A2F260F02C0242F2F5F7D
:1013B0008091EE0740E054EA30ED94E84F5F493CFD
:1013C00079F05093BC008091BC0087FFFCCF8091E6
:1013D000B900887F803149F0883399F3883029F04B
:1013E0008093EE074FEF5FEF53C03093BB009093B5
:1013F000BC008091BC0087FFFCCF8091B900887F42
:101400008032E1F28833E9F28831B9F4A093BB006D
:101410009093BC008091BC0087FFFCCF8091B90005
:10142000887F803329F0883361F2883231F408C034
:101430008093EE0740E050E028C08093EE0719C08B
:101440008093EE0730E02C1B3D0B40E050E064E859
:1014500016C080818093BB006093BC008091BC006B
:1014600087FFFCCF8091B900887F8093EE07883298
:1014700019F04FEF5FEF09C031964F5F5F4FC90121
:10148000841B950B1816190624F384E98093BC007D
:10149000CA01DF91CF910895CF92DF92EF92FF9230
:1014A0000F931F93CF93DF936C018B017A01C0E000
:1014B000D0E08C2DB801A7010E94C3092FEF8F3F08
:1014C000920761F0081B190BC80FD91F10161106DF
:1014D0003CF4C80ED91EE80EF91EEBCFCFEFDFEFBC
:1014E000CE01DF91CF911F910F91FF90EF90DF9090
:1014F000CF9008950F931F93DF93CF930F92CDB7A3
:10150000DEB78FE061E070E08E010F5F1F4FA80132
:101510000E94D80789818B7F89838FE090E061E00A
:1015200070E0A8010E944C0A0F90CF91DF911F91AB
:101530000F910895DF93CF930F92CDB7DEB7198245
:101540008CE090E061E070E0AE014F5F5F4F0E9481
:101550004C0A0F90CF91DF9108950F931F93DF9363
:10156000CF930F92CDB7DEB783E161E070E08E01DB
:101570000F5F1F4FA8010E94D8078981806F898360
:1015800083E190E061E070E0A8010E944C0A8AE0EB
:1015900061E070E0A8010E94D80789818064898396
:1015A0008AE090E061E070E0A8010E944C0A0F9090
:1015B000CF91DF911F910F910895DF93CF930F92F9
:1015C000CDB7DEB78FE061E070E0AE014F5F5F4FF7
:1015D0000E94D807898182FD02C080E008C080E0B7
:1015E00065EB71E041E250E00E9472048FEF0F90D2
:1015F000CF91DF910895DF93CF930F92CDB7DEB7F0
:1016000081E061E070E0AE014F5F5F4F0E94D8075C
:10161000898187FD02C080E008C080E067ED71E04D
:1016200046E150E00E9472048FEF0F90CF91DF915E
:1016300008950F931F93DF93CF930F92CDB7DEB72B
:1016400080E8898381E090E061E070E08E010F5FC7
:101650001F4FA8010E944C0A198281E090E061E0CE
:1016600070E0A8010E944C0A0E94610D0E94610D69
:101670000E94610D0E94610D0F90CF91DF911F912B
:101680000F9108950F931F93DF93CF93CDB7DEB7DC
:1016900060970FB6F894DEBF0FBECDBF0E948808DA
:1016A0008E010F5F1F4FA8012AE030E00E9427152E
:1016B000F80101900020E9F73197E01BF10B80E081
:1016C000B801AF010E94720480E06EEE71E041E06B
:1016D00050E00E94720460960FB6F894DEBF0FBE11
:1016E000CDBFCF91DF911F910F91089578941A9BF0
:1016F00004C00E94420B0E94F50118952F923F9260
:101700004F925F926F927F928F929F92AF92BF9211
:10171000CF92DF92EF92FF920F931F93DF93CF93BD
:10172000CDB7DEB7A5970FB6F894DEBF0FBECDBF1D
:101730003B014C0181E090E00E9451078E010C5E5C
:101740001F4FC401B301A8012AE030E00E94271511
:10175000F80101900020E9F73197E01BF10B80E0E0
:10176000B801AF010E94720480E060EF71E042E0D6
:1017700050E00E947204DE011896ECE2F2E08CE088
:1017800001900D928150E1F7C401B30120E831E5E9
:1017900041E050E00E94B41359016A01C401B30151
:1017A00020E831E541E050E00E94B413562E472E68
:1017B000382E292EC601B5012DE631E040E050E07B
:1017C0000E94B4132E54384F4F4F5F4FCA01B901D6
:1017D0000E9463077B018C0162EB77E080E090E080
:1017E0000E946307E61AF70A080B190B3501460138
:1017F0006E187F08800A910AC401B3012DE631E01A
:1018000040E050E00E94B41379018A0182EB97E036
:10181000A0E0B0E0E80EF91E0A1F1B1FC801B701C7
:1018200024E630E040E050E00E94B4135B018CA35A
:101830009DA3C801B7010E94A007892B11F08DE17B
:101840008987C401B3012DE631E040E050E00E94F9
:10185000B413AC01CB01DA016C017D0120E030E072
:10186000BE01685F7F4F04C0C81AD90AEA0AFB0AA2
:10187000A901FB01E20FF31F808190E0A0E0B0E03E
:101880008C159D05AE05BF0528F42F5F3F4F2D3009
:10189000310551F7FA013196CF016AE070E00E94FC
:1018A000A113362F31703295307F2E81207ECF01EB
:1018B0006AE070E00E94A1138F70232B282B2E83E7
:1018C000C701B6012AE030E040E050E00E94B413C6
:1018D000022F03700295007F1D81107CC701B601A5
:1018E0002AE030E040E050E00E94B4136F70102B0B
:1018F000162B1D83652D742D832D922D20EA3CE837
:1019000040E050E00E94B413022F03700295007F64
:101910001B81107C652D742D832D922D20E13EE0DE
:1019200040E050E00E94B413CA01B9012AE030E05F
:1019300040E050E00E94B4136F70102B162B1B83F5
:10194000652D742D832D922D20E13EE040E050E086
:101950000E94B413F62EE72ED82EC92E28E532E0C9
:1019600040E050E00E94B413022F07700295007F00
:101970001A8110786F2D7E2D8D2D9C2D2CE330E05B
:1019800040E050E00E94B413CA01B9012AE030E0FF
:1019900040E050E00E94B4136F70102B162B1A8396
:1019A0006F2D7E2D8D2D9C2D2CE330E040E050E0FE
:1019B0000E94B413F62EE72ED82EC92E2AE030E06E
:1019C00040E050E00E94B413022F07700295007FA0
:1019D000198110786F2D7E2D8D2D9C2D2AE030E001
:1019E00040E050E00E94B4136F70102B162B198347
:1019F000B5018CA19DA12AE030E040E050E00E94BA
:101A0000B413162FB5018CA19DA12AE030E040E06F
:101A100050E00E94B4132295207F1F70122B1F8369
:101A200081E090E067E070E0AE014F5F5F4F0E94A1
:101A30004C0AA5960FB6F894DEBF0FBECDBFCF916E
:101A4000DF911F910F91FF90EF90DF90CF90BF90AB
:101A5000AF909F908F907F906F905F904F903F904E
:101A60002F90089581E08093B90088E28093B800B8
:101A700082E08093680084E080936C002A9822982A
:101A80000E9471088F3F31F483EF91E00E9462154C
:101A90000E949A0A0E94DD0A8F3F31F484E092E0AE
:101AA0000E9462150E947A0A0E94FB0A8F3F31F45D
:101AB00084E192E00E9462150E94190B0E94AD0A17
:101AC000089520E040E553ECCA010197F1F72F5F3C
:101AD0002436D1F70895A0E0B0E0E1E7FDE00C94F2
:101AE000EA13DC012B01FA019C91923008F439C110
:101AF000EB018881823008F433C1943069F484307A
:101B000009F02FC111969C9111978981981709F4BA
:101B100028C1A8E3B2E025C1843009F421C1823094
:101B2000A9F4923009F01DC19A01AD0188E0EA01E3
:101B30000990AE01E90109929E018150C1F7E201CD
:101B4000898111969C918923818308C1923009F47F
:101B500007C112962D903C901397EB018A819B81CF
:101B60001496AD90BD90CD90DC901797EC80FD80E1
:101B70000E811F819101281B390BB90137FF04C069
:101B800066277727621B730B603271050CF061C00A
:101B9000121613066CF537014801062E04C0969400
:101BA0008794779467940A94D2F721E030E040E07C
:101BB00050E004C0220F331F441F551F6A95D2F70F
:101BC00021503040404050402E213F21402351239E
:101BD000211531054105510521F021E030E040E0BB
:101BE00050E079018A01E628F728082919293CC024
:101BF000232BD1F1260E371E35014601062E04C0D7
:101C000096948794779467940A94D2F721E030E011
:101C100040E050E004C0220F331F441F551F6A9557
:101C2000D2F721503040404050402A213B214C21E6
:101C30005D21211531054105510521F021E030E0FC
:101C400040E050E059016A01A628B728C828D928E1
:101C50000BC0821593052CF01C01AA24BB2465013E
:101C600003C0EE24FF24870111969C91D2011196A6
:101C70008C91981709F445C0992339F0A801970170
:101C80002A193B094C095D0906C0A60195012E19C8
:101C90003F09400B510B57FD08C01182338222824D
:101CA00024833583468357831DC081E0818333823B
:101CB000228288279927DC01821B930BA40BB50B8A
:101CC00084839583A683B7830DC0220F331F441FDF
:101CD000551F2483358346835783828193810197DF
:101CE000938382832481358146815781DA01C9013A
:101CF0000197A109B1098F5F9F4FAF4FBF4328F3F1
:101D00000BC0918333822282EA0CFB1C0C1D1D1D2B
:101D1000E482F5820683178383E080832481358102
:101D20004681578157FF1AC0C901AA2797FDA09580
:101D3000BA2F81709070A070B07056954795379506
:101D40002795822B932BA42BB52B84839583A68375
:101D5000B78382819381019693838283DF0101C0DF
:101D6000D201CD01CDB7DEB7E2E10C940614A0E2BA
:101D7000B0E0EDEBFEE00C94F61369837A838B837D
:101D80009C832D833E834F835887E9E0EE2EF12C10
:101D9000EC0EFD1ECE010196B7010E940A138E01C2
:101DA0000F5E1F4FCE010596B8010E940A138A8963
:101DB00091E089278A8BC701B801AE01475E5F4F6A
:101DC0000E946B0D0E943512A096E6E00C9412144E
:101DD000A0E2B0E0EEEEFEE00C94F61369837A83A5
:101DE0008B839C832D833E834F835887F9E0EF2EAE
:101DF000F12CEC0EFD1ECE010196B7010E940A13D4
:101E00008E010F5E1F4FCE010596B8010E940A1386
:101E1000C701B801AE01475E5F4F0E946B0D0E9483
:101E20003512A096E6E00C941214A0E2B0E0EBE1CB
:101E3000FFE00C94EA1369837A838B839C832D8360
:101E40003E834F835887CE010196BE01675F7F4F67
:101E50000E940A13CE010596BE016F5E7F4F0E945D
:101E60000A139985923088F089898230C8F09430BD
:101E700019F4823051F404C0843029F4923081F492
:101E800088E392E0C6C0923049F420E09A858A89BE
:101E9000981321E02A87CE010996BBC0823049F40D
:101EA00020E09A858A89981321E02A8BCE014196F9
:101EB000B0C02D843E844F8458886D887E888F887A
:101EC000988CEE24FF248701AA24BB24650140E0FE
:101ED00050E060E070E0E0E0F0E0C10181709070FF
:101EE000892BE9F0E60CF71C081D191D9A01AB01BE
:101EF0002A0D3B1D4C1D5D1D80E090E0A0E0B0E090
:101F0000E614F7040805190520F481E090E0A0E04C
:101F1000B0E0BA01A901480F591F6A1F7B1FAA0C24
:101F2000BB1CCC1CDD1C97FE08C081E090E0A0E04B
:101F3000B0E0A82AB92ACA2ADB2A3196E032F10594
:101F400049F0660C771C881C991C5694479437946A
:101F50002794C3CFFA85EA892B893C898B859C8598
:101F6000280F391F2E5F3F4F17C0CA018170907034
:101F7000892B61F016950795F794E79480E090E03F
:101F8000A0E0B0E8E82AF92A0A2B1B2B7695679582
:101F9000579547952F5F3F4F77FDE7CF0CC0440F14
:101FA000551F661F771F17FD4160EE0CFF1C001FB9
:101FB000111F21503040403090E0590790E06907F0
:101FC00090E4790760F32B8F3C8FDB01CA018F7798
:101FD0009070A070B07080349105A105B10561F4D6
:101FE00047FD0AC0E114F1040105110529F0405C28
:101FF0005F4F6F4F7F4F40781A8EFE1711F081E0D0
:102000008A8F4D8F5E8F6F8F78A383E0898FCE018B
:1020100049960E943512A096E2E10C940614A8E1BC
:10202000B0E0E5E1F0E10C94F21369837A838B83ED
:102030009C832D833E834F835887B9E0EB2EF12C90
:10204000EC0EFD1ECE010196B7010E940A138E010F
:102050000F5E1F4FCE010596B8010E940A13298515
:10206000223008F47EC03989323010F4B8017CC0C7
:102070008A859A8989278A87243011F0223031F4A1
:10208000231709F06EC068E372E06EC0343039F493
:102090001D861E861F86188A1C861B8604C0323049
:1020A00021F484E08987B7015FC02B853C858B894B
:1020B0009C89281B390B3C872B87ED84FE840F8578
:1020C0001889AD88BE88CF88D88CEA14FB040C052B
:1020D0001D0540F4EE0CFF1C001F111F2150304065
:1020E0003C872B8720E030E040E050E080E090E04B
:1020F000A0E0B0E460E070E0EA14FB040C051D050C
:1021000040F0282B392B4A2B5B2BEA18FB080C09D3
:102110001D09B695A79597958795EE0CFF1C001F96
:10212000111F6F5F7F4F6F31710531F7DA01C90100
:102130008F779070A070B07080349105A105B105C3
:1021400061F427FD0AC0E114F1040105110529F02D
:10215000205C3F4F4F4F5F4F20782D873E874F8742
:10216000588BBE01675F7F4FCB010E943512689686
:10217000EAE00C940E14A8E0B0E0E1ECF0E10C947D
:10218000F3139B01AC0183E08983DA01C90188273D
:10219000B7FD83959927AA27BB27B82E21153105AE
:1021A0004105510519F482E089833AC08823A9F0DA
:1021B000203080E0380780E0480780E8580729F49D
:1021C00060E070E080E09FEC30C0EE24FF248701E7
:1021D000E21AF30A040B150B02C079018A018EE1A1
:1021E000C82ED12CDC82CB82ED82FE820F83188731
:1021F000C801B7010E94E61101971816190684F468
:10220000082E04C0EE0CFF1C001F111F0A94D2F709
:10221000ED82FE820F831887C81AD90ADC82CB822E
:10222000BA82CE0101960E9435122896E9E00C94FC
:102230000F14ACE0B0E0EFE1F1E10C94FA13698324
:102240007A838B839C83CE010196BE016B5F7F4FA7
:102250000E940A138D81823061F1823050F1843006
:1022600021F48E81882351F12EC02F81388537FDCE
:1022700020C06E812F3131051CF06623F9F023C098
:102280008EE190E0821B930B29853A854B855C8516
:1022900004C056954795379527958A95D2F76623BA
:1022A000B1F050954095309521953F4F4F4F5F4F7E
:1022B0000EC020E030E040E050E009C02FEF3FEFDB
:1022C0004FEF5FE704C020E030E040E050E8B901A4
:1022D000CA012C96E2E00C941614A8E0B0E0E3E703
:1022E000F1E10C94F2137B018C01611571058105FC
:1022F000910519F482E0898360C083E089838EE1CF
:10230000C82ED12CDC82CB82ED82FE820F8318870F
:10231000C801B7010E94E611FC013197F7FF3BC0ED
:10232000222733272E1B3F0B57016801022E04C0C2
:10233000D694C794B794A7940A94D2F740E050E09B
:1023400060E070E081E090E0A0E0B0E004C0880FC1
:10235000991FAA1FBB1F2A95D2F70197A109B1099E
:102360008E219F21A023B1230097A105B10521F063
:1023700041E050E060E070E04A295B296C297D294A
:102380004D835E836F8378878EE190E08E1B9F0B79
:102390009C838B8312C0309781F00E2E04C0EE0C0C
:1023A000FF1C001F111F0A94D2F7ED82FE820F83DB
:1023B0001887CE1ADF0ADC82CB821A82CE01019600
:1023C0000E9435122896EAE00C940E14EF92FF92C8
:1023D0000F931F937B018C0180E0E81680E0F806E4
:1023E00081E0080780E0180788F48FEFE816F10411
:1023F0000105110531F028F088E090E0A0E0B0E0A0
:1024000017C080E090E0A0E0B0E012C080E0E816E5
:1024100080E0F80680E0080781E0180728F088E1EE
:1024200090E0A0E0B0E004C080E190E0A0E0B0E087
:1024300020E230E040E050E0281B390B4A0B5B0BF8
:1024400004C016950795F794E7948A95D2F7F7019B
:10245000E05CFD4F8081281B310941095109C90108
:102460001F910F91FF90EF900895DF92EF92FF92EE
:102470000F931F93FC01E480F58006811781D180C2
:102480008081823048F480E090E0A0E1B0E0E82A6A
:10249000F92A0A2B1B2BA5C0843009F49FC0823077
:1024A00021F4EE24FF24870105C0E114F1040105A5
:1024B000110519F4E0E0F0E096C0628173819FEFAE
:1024C000623879070CF05BC022E83FEF261B370B20
:1024D0002A3131052CF020E030E040E050E02AC005
:1024E000B801A701022E04C07695679557954795C8
:1024F0000A94D2F781E090E0A0E0B0E004C0880F39
:10250000991FAA1FBB1F2A95D2F70197A109B109EC
:102510008E219F21A023B1230097A105B10521F0B1
:1025200081E090E0A0E0B0E09A01AB01282B392BCC
:102530004A2B5B2BDA01C9018F779070A070B070C5
:1025400080349105A105B10539F427FF09C0205C4D
:102550003F4F4F4F5F4F04C0215C3F4F4F4F5F4F86
:10256000E0E0F0E02030A0E03A07A0E04A07A0E475
:102570005A0710F0E1E0F0E079018A0127C06038E5
:10258000710564F5FB01E158FF4FD801C7018F7752
:102590009070A070B07080349105A105B10539F438
:1025A000E7FE0DC080E490E0A0E0B0E004C08FE35F
:1025B00090E0A0E0B0E0E80EF91E0A1F1B1F17FF15
:1025C00005C016950795F794E794319687E0169520
:1025D0000795F794E7948A95D1F705C0EE24FF2478
:1025E0008701EFEFF0E06E2F679566276795902FD4
:1025F0009F77D794DD24D7948E2F8695492F462B2D
:10260000582F5D29B701CA011F910F91FF90EF90DC
:10261000DF900895FC01DB01408151812281622F0E
:102620006F7770E0221F2227221F9381892F880F46
:10263000822B282F30E0991F9927991F11969C9380
:10264000119721153105A9F5411551056105710550
:1026500011F482E037C082E89FEF13969C938E932B
:1026600012979A01AB0167E0220F331F441F551FD9
:102670006A95D1F783E08C930DC0220F331F441F5E
:10268000551F12968D919C911397019713969C93C9
:102690008E931297203080E0380780E0480780E46E
:1026A000580758F314962D933D934D935C931797C9
:1026B00008952F3F310579F44115510561057105E4
:1026C00019F484E08C93089564FF03C081E08C9337
:1026D00012C01C9210C02F57304013963C932E937B
:1026E000129783E08C9387E0440F551F661F771F76
:1026F0008A95D1F7706414964D935D936D937C9396
:1027000017970895629FD001739FF001829FE00D9B
:10271000F11D649FE00DF11D929FF00D839FF00D60
:10272000749FF00D659FF00D9927729FB00DE11D0C
:10273000F91F639FB00DE11DF91FBD01CF011124E9
:10274000089597FB092E07260AD077FD04D02ED0D6
:1027500006D000201AF4709561957F4F0895F6F722
:10276000909581959F4F0895A1E21A2EAA1BBB1B3D
:10277000FD010DC0AA1FBB1FEE1FFF1FA217B3074D
:10278000E407F50720F0A21BB30BE40BF50B661F63
:10279000771F881F991F1A9469F760957095809527
:1027A00090959B01AC01BD01CF010895AA1BBB1BF5
:1027B00051E107C0AA1FBB1FA617B70710F0A61B41
:1027C000B70B881F991F5A95A9F780959095BC0162
:1027D000CD0108952F923F924F925F926F927F9218
:1027E0008F929F92AF92BF92CF92DF92EF92FF9221
:1027F0000F931F93CF93DF93CDB7DEB7CA1BDB0BCD
:102800000FB6F894DEBF0FBECDBF09942A88398871
:1028100048885F846E847D848C849B84AA84B98478
:10282000C884DF80EE80FD800C811B81AA81B98184
:10283000CE0FD11D0FB6F894DEBF0FBECDBFED0198
:102840000895A0E0B0E0E7E2F4E10C94EB13EC01B2
:102850002B016A016115710519F0FB0191838083D9
:10286000C114D10449F0C6010297839728F020E0F3
:1028700030E040E050E0DCC0A9908A2D90E00E945A
:102880001F15892BC9F7FDE2AF1621F4A990332457
:10289000339405C08BE2A81609F4A9903324C1141F
:1028A000D10421F0E0E1CE16D10411F5F0E3AF162A
:1028B00069F48881883711F0883541F4A98022961F
:1028C00082E0382A20E1C22ED12C12C0C114D104DA
:1028D00079F4E0E3AE1659F199E9E92E99E9F92E78
:1028E00099E9092F99E1192F8AE0C82ED12C3AC015
:1028F000FAE0CF16D10491F080E1C816D10429F096
:10290000E8E0CE16D104F9F415C0BFEFEB2EBFEF0F
:10291000FB2EBFEF0B2FBFE01B2F24C0A9E9EA2E2F
:10292000A9E9FA2EA9E90A2FA9E11A2F1BC0F8E09C
:10293000CF2ED12CEFEFEE2EEFEFFE2EEFEF0E2F7E
:10294000EFE11E2F0FC09601442737FD4095542F0D
:102950006FEF7FEF8FEF9FEF0E94B413C901DA0191
:102960007C018D0120E030E040E050E060E0360185
:10297000882477FC8094982C70EDB72EBA0CF9E07F
:10298000FB1570F48A2D81548A3118F499ECB92E14
:1029900006C08A2D81568A3148F589EAB82EBA0CCC
:1029A0008B2D90E08C159D050CF56F3FE9F0E2163C
:1029B000F30604071507B8F0CA01B901A401930191
:1029C0000E9482139B01AC018B2D90E0A0E0B0E04F
:1029D000280F391F4A1F5B1F281739074A075B0753
:1029E00010F061E001C06FEFA990C6CF411451040F
:1029F00051F0662311F0219703C031FE04C02297E5
:102A0000F201D183C08330FE07C0509540953095C8
:102A100021953F4F4F4F5F4F67FF0AC082E290E022
:102A20009093F6078093F5072FEF3FEF4FEF5FEF9F
:102A3000B901CA01CDB7DEB7E1E10C9407149111D9
:102A40009CC0803219F089508550D0F70895FA0162
:102A5000CF93FF93EF932230CCF02532BCF4C22FFA
:102A60002C2F332744275527FF93EF930E94B4134D
:102A7000EF91FF91605D6A330CF0695D6193B9017C
:102A8000CA01605070408040904051F710828F9191
:102A90009F91CF910C94C015FB019F01423074F0BF
:102AA000453264F4642F77270E94D613805D8A3301
:102AB0000CF0895D8193CB010097A1F71082C901C9
:102AC0000C94C0150F931F93CF93DF938C01E0916B
:102AD000F107F091F207838181FF21C0C0E0D0E0CF
:102AE0000DC0E091F107F091F20720853185BF011B
:102AF000F9010995892B11F0CFEFDFEFF8018191F2
:102B00008F01882371F7E091F107F091F20720859A
:102B100031858AE0BF01F9010995892B11F0CFEFCA
:102B2000DFEFCE01DF91CF911F910F910895A2D0D9
:102B3000E0F09E37D8F09639B8F49E3848F4672F05
:102B4000782F8827985FF9CF869577956795939525
:102B50009539D0F3B62FB1706B0F711D811D20F424
:102B600087957795679593951BC035C09EC09F93B9
:102B700041D00F9007FCEE5F64C099278827089525
:102B8000DC01FC01672F71917723E1F7329704C0D4
:102B90007C916D9370836291AE17BF07C8F308955F
:102BA000882371F4772321F09850872B762F07C064
:102BB000662311F499270DC09051862B70E060E0D8
:102BC0002AF09A95660F771F881FDAF7880F969577
:102BD000879597F908959F3F31F0915020F487959C
:102BE00077956795B795880F911D9695879597F975
:102BF0000895C7C03FD0E8F3E894E0E0BB279F57B3
:102C0000F0F02AED3FE049EC06C0EE0FBB0F661F67
:102C1000771F881F28F0B23A62077307840728F0ED
:102C2000B25A620B730B840BE3959A9572F7803856
:102C300030F49A95BB0F661F771F881FD2F7904814
:102C4000CCCFEF93E0FF06C0A2EA2AED3FE049ECCB
:102C50005FEB3ED0B8D00F90039401FC9058ECE7A6
:102C6000F0E092C057FD9058440F551F59F05F3F58
:102C700071F04795880F97FB991F61F09F3F79F09E
:102C800087950895121613061406551FF2CF469520
:102C9000F1DF08C0161617061806991FF1CF8695A2
:102CA0007105610508940895E894BB276627772786
:102CB000CB0197F9089579D030F07ED020F031F42F
:102CC0009F3F11F41EF45DC00EF4E095E7FB53C086
:102CD000E92FC8DF80F3BA176207730784079507E7
:102CE00018F071F49EF5E0CF0EF4E0950B2EBA2F9C
:102CF000A02D0B01B90190010C01CA01A001112402
:102D0000FF27591B99F0593F50F4503E68F11A16AD
:102D1000F040A22F232F342F4427585FF3CF46953E
:102D200037952795A795F0405395C9F77EF41F1660
:102D3000BA0B620B730B840BBAF09150A1F0FF0F2A
:102D4000BB1F661F771F881FC2F70EC0BA0F621F16
:102D5000731F841F48F4879577956795B795F79506
:102D60009E3F08F0B3CF9395880F08F09927EE0F98
:102D700097958795089597F99F6780E870E060E0E0
:102D800008959FEF80EC08959F938F937F936F93A7
:102D9000FF93EF939B01AC0148D8EF91FF9124D0B2
:102DA0002F913F914F915F9140C800240A941616CD
:102DB000170618060906089500240A941216130629
:102DC000140605060895092E0394000C11F48823B7
:102DD00052F0BB0F40F4BF2B11F460FF04C06F5FD3
:102DE0007F4F8F4F9F4F0895DF93CF931F930F9384
:102DF000FF92EF92DF927B018C01689405C0DA2E7E
:102E0000EF0121D0FE01E894A591259135914591DE
:102E10005591AEF3EF015CDFFE019701A801DA9452
:102E200079F7DF90EF90FF900F911F91CF91DF9195
:102E30000895BBDF28F0C0DF18F0952309F09BCF81
:102E4000A0CF112432CF0EDFA0F3959FD1F3950FC1
:102E500050E0551F629FF001729FBB27F00DB11D1E
:102E6000639FAA27F00DB11DAA1F649F6627B00DAE
:102E7000A11D661F829F2227B00DA11D621F739F97
:102E8000B00DA11D621F839FA00D611D221F749FA5
:102E90003327A00D611D231F849F600D211D822FEC
:102EA000762F6A2F11249F5750408AF0E1F0882333
:102EB0004AF0EE0FFF1FBB1F661F771F881F915040
:102EC0005040A9F79E3F510570F055CFEECE5F3FC1
:102ED000ECF3983EDCF3869577956795B795F79573
:102EE000E7959F5FC1F7FE2B880F911D96958795FB
:082EF00097F90895F894FFCF53
:102EF80068656C6C6F20776F726C640A005361763A
:102F080065204576656E742046696E6973686564E8
:102F18000A0044656C657465204576656E742046C4
:102F2800696E69736865640A005374617274204538
:102F380076656E74204C6973740A00494E4445588E
:102F48003A20000A0053746172742074696D653AFE
:102F580020004F6E2054696D653A20004F66662048
:102F680054696D653A2000506F72743A2000456EBE
:102F780064204576656E74204C6973740A00456E4A
:102F88006420537769746368204F75747075740A88
:102F980000504F4E470A000000000200000000AC3D
:102FA80004000000005741524E494E473A204F5303
:102FB80043494C4C41544F52204641494C204249C8
:102FC80054205345540A005741524E494E473A201F
:102FD80053544F5020424954205345540A000A0084
:102FE8007C0A0068616C7420526573657474696E3C
:102FF800672E2E006F736320526573657474696E53
:10300800672E2E00526573657474696E672E2E00E4
:103018001F1C1F1E1F1E1F1F1E1F1E1F1F1C1F1EC3
:103028001F1E1F1F1E1F1E1F0000000000000000A3
:103038000001020203030303040404040404040457
:103048000505050505050505050505050505050528
:103058000606060606060606060606060606060608
:1030680006060606060606060606060606060606F8
:1030780007070707070707070707070707070707D8
:1030880007070707070707070707070707070707C8
:1030980007070707070707070707070707070707B8
:1030A80007070707070707070707070707070707A8
:1030B8000808080808080808080808080808080888
:1030C8000808080808080808080808080808080878
:1030D8000808080808080808080808080808080868
:1030E8000808080808080808080808080808080858
:1030F8000808080808080808080808080808080848
:103108000808080808080808080808080808080837
:103118000808080808080808080808080808080827
:103128000808080808080808080808080808080817
:00000001FF
